:1020000000800020E5820000CD820000CD8200002B
:1020100000000000000000000000000000000000C0
:10202000000000000000000000000000CD82000061
:102030000000000000000000CD8200003983000095
:10204000CD820000CD820000CD820000CD82000054
:10205000CD820000CD820000CD820000D182000040
:10206000CD82000019820000CD820000CD820000E8
:10207000F1810000CD82000029820000CD820000A5
:10208000CD820000CD820000CD820000CD82000014
:1020900000000000CD820000CD820000CD82000053
:1020A000CD820000CD820000CD820000CD820000F4
:1020B0000000000010B5064C2378002B07D1054B1B
:1020C000002B02D0044800E000BF0123237010BDA4
:1020D00090010020000000008CEB0000044B10B5C4
:1020E000002B03D00349044800E000BF10BDC046E8
:1020F00000000000940100208CEB000010B5008867
:1021000002F014FB10BD000010B5012002F00EFB20
:10211000044B01001880044805F0DEF80022034B50
:102120001A7010BDAE0100200C070020B001002085
:1021300010B50D4C2378002B0FD102F053FD9F23D7
:102140009B01984203D19620800002F08DFD002073
:1021500003F036F9237801332370044B2278198871
:10216000034805F0D9F810BDB0010020AE010020F1
:102170000C07002070B5154E154832000D000024E4
:1021800002F0B0FCA04216D13100280008F09CFDFE
:10219000A04210D10F4D280006F090FF0E4E020015
:1021A0000A280AD13178280006F0BDFC2021280039
:1021B00006F04FFC0124200070BD01222100280000
:1021C00006F02CFF3070FFF7B3FFF3E744AD0000DB
:1021D000F1050020182F0020B001002073B51D4C20
:1021E00023784F2B1DD81C4D280005F010FB00282C
:1021F00019D1280005F008FB0223184005006B1ECA
:102200009D41164EEDB2002811D13378002B07D036
:10221000134B21781868002802D00368DB689847C0
:102220003570002076BD05F031FA407FE4E70D4BB4
:1022300000221878FF2104F05FFD01AB1870020442
:102240000002120E000E98705A700199207803F067
:1022500053F8E5E70000002050270020B2010020DD
:1022600030060020B3010020FF230A4930B50B706F
:1022700000230948DCB2502B08D05A0012185578B8
:102280001278392A04D1002D02D10C70002030BD03
:102290000133EFE7000000207D02002010B5FFF7BA
:1022A000E3FF10BD10B5FFF7DFFF10BD002802D01F
:1022B000024B416003600A707047C04664C0000072
:1022C000002807D0044B4160036080235B028360D9
:1022D000FF2303737047C0464CC20000002807D09C
:1022E000044B4160036080235B028360FF23037320
:1022F0007047C04634C2000010B5044804F064FCC6
:10230000034B1A68034B1A6010BDC046E606002056
:1023100024020020BC01002070B504000D0016004E
:10232000002801D002F054FF2E70200070BD10B5BF
:102330000368C9B21B68984710BD704710B50524E3
:1023400008002200024908F0F4FB200010BDC0463E
:1023500071AE000010B501F0B7FF10BD10B50D480B
:1023600002F012FA0C4802F0ABF80C48FFF796FFA7
:102370000B4803F0D1F80B4804F05AF80A48FFF76D
:10238000BDFE0A4802F090FC094803F053FE00200D
:1023900010BDC046E7050020E1050020B101002086
:1023A0002E0600208C060020B4010020120600201A
:1023B0005C06002010B5044802F08CFA034802F0D5
:1023C0001BFC002010BDC046E705002012060020BF
:1023D00010B50448FFF766FF034801F005FD002033
:1023E00010BDC046B10100207105002010B50248A3
:1023F00004F036F8002010BD8C06002010B50D4802
:1024000003F080FC0C48FFF7E9FE0C4803F018F8D5
:102410000B4803F053FC0B4802F0A4FB0A4803F0FE
:1024200007FD0A4803F08EFE094804F001FA002077
:1024300010BDC04659060020B10100202E06002024
:102440003F060020F10500205C0600206406002005
:102450009406002010B5074804F0B2FA064803F0CD
:102460004FFB064803F0D4FC054803F07DFE002036
:1024700010BDC046C00600203F0600205C060020BC
:10248000640600200420704710B50C000349C0000A
:1024900009180822200008F04CFB10BD50AE0000C7
:1024A0007047000010B5002814D1032319400229F9
:1024B00010D1094C0949200003F055FB08492000C0
:1024C00003F051FB0749200003F04DFB06492000B3
:1024D00003F049FB002010BD3F06002059AD00006D
:1024E00075AD00007EAD000091AD0000962170B585
:1024F0000126184C8901184806F04CFE206800F0AF
:1025000071FB0A2001F0FAFF0A21144801F05CFC7B
:10251000FF21134803F0BAF9FF21124803F0B8F97C
:10252000114D124C2B68334203D1200002F076FE8D
:102530002E6080210E4BC90000201C6001F0AEFE11
:102540008020000101F0D4FCFFF7DEFDFFF7F0FD75
:1025500070BDC04694BB0000182F002071050020FC
:102560003A0600203C060020B80100201C02002092
:10257000240600201B4B07B5186800F0BBFB1A4B64
:102580001A4A19681268521A19498A4201D9002256
:102590001A601B68002B23D0164805F038F9002874
:1025A00000D078200022FF2104F0A6FB01AB1870B8
:1025B00002040002120E000E98705A700199402019
:1025C00002F09AFE0199302002F096FE0199422015
:1025D00002F092FE0199062002F08EFE02F0B8FE93
:1025E00007BDC04694BB0000BC01002024020020AF
:1025F000102700005027002070B504000D001600C1
:1026000013780A7801002C4800F0CEFA012801D195
:10261000012070BD33782A782100284802F0A2FFFB
:102620000128F5D033782A782100254802F0E0FD12
:102630000128EDD033782A782100224802F0FEFAF2
:102640000128E5D033782A7821001F4804F024FAC5
:102650000128DDD033782A7821001C4803F036FAAF
:102660000128D5D033782A782100194801F042FD9D
:102670000128CDD033782A782100164803F030FCA9
:102680000128C5D033782A782100134803F0D0FD03
:102690000128BDD033782A782100104802F0FCF9D7
:1026A0000128B5D033782A7821000D4804F068F865
:1026B000013843425841ACE7200200202E0600209A
:1026C0002006002012060020C00600203F06002041
:1026D000760500205C06002064060020F00500203E
:1026E0009406002007B501AB197011006A46073245
:1026F00011701900FFF780FF0EBD00000822014B8A
:102700001A807047B4010020F0B5394B85B00193B1
:10271000002303900093374D0399280005F025FC12
:102720000121280005F06FFCFF21019B28001C8877
:102730002140FFF7FCFD21122800FFF7F8FD2800DB
:1027400005F0BEFC0700012005F00AFE002F4CD169
:10275000284C0399200005F008FC2000022105F018
:1027600052FC254CFEB21037BE421ADA234B009AB7
:102770009B199B5C1F481900029305F044FC029BC7
:102780001F4A5C4008230120611020408CB20028C1
:1027900001D051408CB2013B002BF4D10136F6B28E
:1027A000E2E7FF2128002140FFF7C1FD21122800A8
:1027B000FFF7BDFD00212800FFF7B9FD280005F057
:1027C0007FFC032811D1023805F0CAFD402FBFD18C
:1027D000019B02330193009B40330093B823009A7E
:1027E0001B019A4297D1012000E0002005B0F0BD06
:1027F00038BB000044280020FFFF0000B7AF0000F6
:1028000001A0FFFFF7B52B4C07000E0001002000D0
:102810001500019305F0A9FB0621200005F0F3FB4C
:10282000FF2120002940FFF782FD29122000FFF739
:102830007EFDFF23019920001940FFF778FD019BE1
:1028400020001912FFF773FD0021200005F000FCA5
:10285000051E11D1642005F083FD032239002000FC
:1028600005F0CCFB200005F030FC3070200005F0B6
:102870000FFB002802D1FF252800FEBD200005F037
:1028800024FC0700200005F003FB0028F3D0200003
:1028900005F01BFC0190200005F0FAFA002803D097
:1028A000200005F012FCF6E7019BFFB21B021F435C
:1028B0007780E1E74428002073B5114C0600010041
:1028C0000322200005F09AFB200005F0E1FA002821
:1028D00003D0200005F0F9FBF6E70A4D01AC290012
:1028E000094B30000422FFF78DFF2900042220004D
:1028F00008F01FF9638820881B04184376BDC04682
:1029000044280020020000207C0B0000F0B55A4A49
:1029100085B0060059480C0002F0E4F800230500D9
:10292000984222D109225649200008F0DEF92B00F6
:1029300000281AD109345349200008F0C5F90028AD
:1029400016D05149200008F0BFF9002849D04F495E
:10295000200008F0B9F9002845D020004C4908F0C3
:10296000B3F951242B0000283ED0180005B0F0BD6B
:1029700050242F00474800F089FE2000002F6DD121
:10298000FFF79AFF0390C0B2FF285ED002ABDA884F
:10299000414B9A4259D0414F2100380005F0E5FAE9
:1029A0000421380005F02FFB380005F089FB019069
:1029B000FA20800005F0D4FC019B002B45D03100AB
:1029C0002000FFF7A1FE00283FD0354B042203A9C9
:1029D0002000FFF717FF002808D0642005F0C0FC96
:1029E000F3E75124C5E750240127C3E7012104225E
:1029F0008C46294B08262B49895C4B406046591070
:102A000018408BB2002802D0274B59408BB2013EB0
:102A1000002EF3D1B821013209018A42EAD102AA7B
:102A2000D2889A4211D12100380005F09EFA032184
:102A3000380005F0E8FA31003800FFF778FC38007C
:102A400005F03EFB43425841C5B2280002F066F84B
:102A50002021164805F0FDFF012386E7FFF72CFF34
:102A60000390C0B2FF28F0D002ABD888104BC0183A
:102A7000431E9841E8E7C0469FAD0000F1050020E5
:102A800007AE000011AE000021AE000032AE000023
:102A9000F5AD00000A070020FFFF000044280020D9
:102AA0007C0B0000B7AF000001A0FFFF182F002033
:102AB0000100FFFF10B5016804002A4801F07AFD0B
:102AC000012801D1012010BD2168274801F00EFF27
:102AD0000128F7D02168254801F082FF0128F1D0B4
:102AE0002168234802F092FD0128EBD0216821489B
:102AF00002F00CFA0128E5D021681F4801F084F9A2
:102B00000128DFD021681D4802F0F6F80128D9D04D
:102B100021681B4800F0BEFE0128D3D02168194867
:102B200001F014FC0128CDD02168174801F0FCFA0F
:102B30000128C7D021681548FFF7E8FE0128C1D059
:102B40002168134801F0E2FF0128BBD02168114839
:102B500002F0C6FE0128B5D021680F48FFF70AFB36
:102B6000B1E7C046E1050020E9050020E8050020A6
:102B70002D0600201D0600207105002012060020F1
:102B800070050020BA05002076050020B60100205F
:102B9000F10500203E060020AC01002007B50190A1
:102BA00001A8FFF787FF0EBD10B5024802F046F8F6
:102BB00010BDC0461206002070B5084D0400280064
:102BC00004F025FE2100002803D1280004F052FE65
:102BD00070BD034804F078FFFAE7C0465027002094
:102BE0009C270020962110B589010A4806F0D2FAE8
:102BF0000024FFF7A2FBFFF7B1FB00F0B7FD00F0E8
:102C0000E5F8201C0134E4B200F0A2F8502CF8D111
:102C100010BDC046182F002070B543790579040017
:102C20001D402B0702D5E120FFF7C6FFEB0702D5B9
:102C3000E020FFF7C1FFAB0702D5E220FFF7BCFFA2
:102C40006B0702D5E620FFF7B7FFEB0602D5E320BE
:102C5000FFF7B2FF164D280004F0D9FDA179061E3A
:102C600010D100290AD0280004F021FE280004F029
:102C7000D5FDA179280004F0FDFDA671280004F01F
:102C8000CDFD70BD0B4D00290BD0280004F037FF9F
:102C9000280004F0C9FEA179280004F015FF0023E4
:102CA000A371280004F0C0FE034804F07BFEE8E7AF
:102CB000502700209C2700207C270020002310B5EF
:102CC000094C83714371200004F0A1FD002803D159
:102CD000200004F015FE10BD044804F02CFF044849
:102CE00004F050FEF7E7C046502700209C27002044
:102CF0007C27002010B505F02DFB094B1860FFF76D
:102D000059FB00F0ADFBFFF779FB064C2000FFF705
:102D100083FF2000FFF7D2FFFFF79CFB10BDC046EA
:102D200024020020FC06002050235843C9B2411859
:102D300006484900091808784A78AF33184013400C
:102D40001B0282B0184302B07047C04677AE000045
:102D500070B5084AC3B25D00011CD05C064B074C3D
:102D60001B68984700B2285500046419000E607073
:102D700070BDC0462C020020080000207D0200200B
:102D8000012110B5094B1C68094B1B78013BDBB2D4
:102D9000DAB2002B07D02000D840013B0842F7D020
:102DA000044B1A7010BD034A1370FBE72802002081
:102DB000060000207C0200200300034A1068D8406F
:102DC000012318407047C04628020020F7B5144E72
:102DD00050220021300007F0B5FE0025EFB2502D43
:102DE0001DD000240F4B1C57002C13DDE4B2200033
:102DF000FFF7E2FF00280FD00B4B391C1B682000A7
:102E0000984701AB1880C0B2FF2802D15B78FF2B36
:102E100002D074550135E1E7013C64B2E4E7F7BD47
:102E20002C0200207C0200200800002010B5084B76
:102E3000084A1B7898429B41184001238340136045
:102E4000FFF79EFFFFF7C2FFFFF7C2FA10BDC046B3
:102E500006000020280200200A4910B50B68012254
:102E60001C00C44014420CD0824093430B60064BBC
:102E70001B78834201D1FFF783FFFFF7A7FFFFF71E
:102E8000A7FA10BD280200207C02002010B50D4BCF
:102E900004001B78834213D9FFF78EFF00280FD15F
:102EA0000123A340084A11680B431360074B1B78AA
:102EB000A34201D2FFF764FFFFF788FFFFF788FA0C
:102EC00010BDC04606000020280200207C02002021
:102ED00010B5034B18780130C0B2FFF7D7FF10BD13
:102EE0007C02002010B5024B1878FFF7B5FF10BD2B
:102EF0007C02002013B5C4B201AB1880532C09D951
:102F000003231940022904D120005438C0B2FFF72E
:102F10008DFF13BD292C2BD92A3CE4B2212C0DD0D6
:102F2000222C12D103231940022902D1FFF7D0FF2E
:102F3000EFE70129EDD1FFF7D5FFEAE703231940B9
:102F40000229F8D00129E4D1F0E78B0708D5200049
:102F5000FFF732FF0028DCD12000FFF797FFD8E70A
:102F6000032319400129D4D12000FFF775FFD0E7D2
:102F7000032319400229CCD12000FFF71DFF0028B0
:102F8000EAD0002CE8D0EFE730B585B001AD0304FE
:102F900028801B0E03AC442B07D083B223806378B8
:102FA00020781B02184305B030BD11000198FFF7CF
:102FB000A1FF0023F2E7000010B50400010001208A
:102FC00005F08AFC014B1C7010BDC0461D0300209B
:102FD00073B51B4D1B4C2978200000F06FFD1A4E75
:102FE0002978300000F06AFD200000F0C7FD0500E0
:102FF0003000EDB200F0C2FD144B012D03D0C0B281
:103000000022012800D101221A7022000023393247
:10301000137022003A3213700D4A3B341278237039
:103020009A420CD001AA13809370019802F0A8F97B
:10303000084B1868002802D003685B68984773BD86
:103040000C00002028030020200400202003002082
:103050001700002030060020C043084BC0B2D9330F
:103060001870074B0122D933187000230548064910
:103070001A545A540133092BFAD1704728030020FF
:10308000200400201805002021050020024BD93320
:103090001878C043C0B270472803002070B5802460
:1030A0000D4E0E4D33786400E95C0320611A09026D
:1030B000013905F0DBFA73780520E95C611A090231
:1030C000013905F0D3FAB3780420E95C611A0902EA
:1030D000013905F0CBFA70BD2B050020F2BC0000D1
:1030E00070B50024104DE6B2635D002B05D03100B1
:1030F0000E4800F07FFD002363550D4D635D002BEE
:1031000005D031000B4800F075FD002363550134F4
:10311000092CE7D1084C2378002B03D0FFF7BEFF22
:103120000023237070BDC04618050020280300202E
:1031300021050020200400202A050020F7B501AB5E
:103140000191832818D81C7859789A78832814D14B
:103150002C4801230578A54207D145788D4204D13A
:1031600083789B1A5D1EAB41DBB2274D04702E782D
:10317000417033432B708270F7BD244B1D7885233B
:103180005D43234B5B191B5C472B1BD803255D4319
:103190002048214E2D182878DB0884466F78A878BF
:1031A0002C706970AA70F55C00950125644505D105
:1031B000B94203D1121A501E8241D5B2009A15436A
:1031C000F554D9E78F2BD7D80320483B5843134DEC
:1031D000DB10401905784778AC46114D86780470AD
:1031E00041708270E85C00900120644505D1B942CD
:1031F00003D1921B561EB241D0B2009A1043E8543C
:10320000BAE7C0462B0500202A0500202003002035
:1032100098BB00002803002018050020200400208F
:103220002105002013B501AC83280AD9002323808F
:10323000A37062782078A37812021B04104318430D
:1032400016BD0C4B1A7885235A430B4B9B18195CFF
:10325000472907D803225143084B5918200007F08B
:1032600068FCE6E78F29E1D8032248395143044B33
:10327000F3E7C0462003002098BB0000280300208D
:1032800020040020012110B5080005F0D9FA002023
:10329000FFF792FE102005F0B1F9FFF7FFFE0A20BC
:1032A00005F05EF80120FFF787FEFA20400005F0E8
:1032B00057F810BDF7B5394F08223900384807F0E4
:1032C00038FC384C08222100374807F032FC374ED2
:1032D000300000F058FC002812D03100684600F0A1
:1032E00081FC08226946380007F023FC304B1B782C
:1032F000012B05D1FA7802331A4201D05340FB70FA
:103300002C4D280000F03FFC002816D0290068460C
:1033100000F068FC08226946200007F00AFC244BF4
:103320001B78012B09D16278A1781000484018421F
:1033300003D05A404B406270A3703300D8331B78DF
:10334000002B03D01C4B1B78002B08D02B00D8334C
:103350001B78002B05D0194B1B78002B01D1FFF7F0
:1033600037FED8363278002A07D1134B1B78002B52
:1033700003D00020002138607960D8352B78002BED
:1033800007D10E490978002903D0002000212060D0
:10339000616009490A70094A1370F7BD38050020B9
:1033A000600500205005002068050020280300204B
:1033B000200300202004002048050020580500209C
:1033C000F0B5002685B000257300DBB20193204BD9
:1033D00077193A001868596807F030FB0223440057
:1033E0001C401C4B3A001868596807F027FB012263
:1033F0000240224307D0002302A90B80019B0298C0
:10340000591903F083FE144B3A001868596807F005
:1034100015FB022344001C40104B3A001868596801
:1034200007F00CFB01220240224308D0002103AB2D
:103430001980019903980F31491B03F067FE01358C
:10344000082DC4D10836282EBDD105B0F0BDC04628
:103450003805002060050020500500206805002088
:1034600010B5FFF727FFFFF7ABFF10BDC0B210B5D7
:103470004F280CD80F22012302400009072A07D940
:103480001021054C8A1A9340225C1343235410BD2B
:10349000024C0821F6E7C046400500203005002018
:1034A000C0B210B54F280CD80F22012302400009EA
:1034B000072A07D91021054C8A1A9340225C9A43A7
:1034C000225410BD024C0821F6E7C04640050020FA
:1034D00030050020C3B200204F2B0BD819000F225B
:1034E0001B091140072906D90548C05C521A104132
:1034F000012318407047034AD05C0722F6E7C04614
:103500004005002030050020C0B202000F23000952
:103510001A40072A06D905499B1A085C184101235D
:1035200018407047024B185C1041F8E75005002026
:103530003805002010B5074B1868596807F08AFA5B
:10354000054B04001868596807F084FA2018C0B2C7
:1035500010BDC046380500205005002070B500247D
:10356000064B0121E55C0134280005F069F90021D2
:10357000280005F0B1F9262CF2D170BDF2BD000093
:10358000014B18787047C0461D030020481E81413A
:1035900010B5C8B2FFF710FD10BD000010B502480D
:1035A00000F0DDFAC0B210BD2803002010B50248BB
:1035B00000F0D5FAC0B210BD20040020014BE43366
:1035C0001878704728030020014BE43318787047BF
:1035D0002004002010B5024800F0C6FAC0B210BDA9
:1035E0002803002010B5024800F0BEFAC0B210BD9A
:1035F0002004002010B5024800F0BBFAC0B210BD94
:103600002803002010B5024800F0B3FAC0B210BD84
:103610002004002010B50C00034800F059FA2100E6
:10362000024800F055FA10BD2004002028030020B5
:10363000024B18780138434258417047200300205C
:1036400010B5024800F04FFAC0B210BD20040020AF
:10365000014B18887047C0460C0000200022002350
:1036600010B50749074C0A604B60074920000A6003
:103670004B60FFF723FB2000FFF7CEFA10BDC046DA
:1036800038050020FC0600205005002010B5134C22
:10369000200004F065FC0020FFF78EFC01211520BE
:1036A00005F0CEF80121142005F0CAF800211520FC
:1036B00005F012F90021142005F00EF9FFF7CEFFF6
:1036C0000120FFF779FC200004F01CFC04492000D5
:1036D00004F038FC642004F043FE10BD44280020B0
:1036E000A086010070B5150006000C00127803F0EA
:1036F00013FE30006A78611C03F00EFE280070BDD6
:10370000F7B5022001F012F8144C154E0100050027
:103710003080200003F0E0FD6B46691C98712000AA
:103720009F1D03F0D9FD78703A880E4B0E4F9A42D8
:1037300007D131883A002000FFF7D4FF200003F0C2
:10374000EFFD35882000290003F0C6FD691C3870A4
:10375000200003F0C1FD7870F7BDC0460C070020C3
:103760001E030020FFFF00000C00002010B5FFF733
:10377000C7FFFFF7F3FEFFF785FD054C200004F0BF
:10378000C1FB0449200004F0DDFBFFF721FC10BD64
:1037900044280020A086010070B50400C5B22900AD
:1037A000094800F08BF92900084800F087F9084A19
:1037B000084B1480084C19882000FFF793FF200065
:1037C00003F0AEFD70BDC046280300202004002099
:1037D0000C0000201E0300200C07002010B508007C
:1037E000FFF7DAFF10BD0000144A00231100D831A2
:1037F0000B701100D9310B701100DC310B6011001E
:103800005820E03108601100F03213700C4AE431A6
:103810000B701100D8310B701100D9310B701100F1
:103820005738DC31086011005830E0310860110071
:10383000F032E4310B7013707047C046280300204B
:103840002004002010B5012204000021024805F0E8
:10385000E5FB207010BDC046182F002010B5054CA8
:103860000100200005F0F1F82021200005F0F1F81A
:1038700010BDC046182F002010B5054C01000A22CB
:10388000200005F050F92021200005F0E2F810BDDD
:10389000182F002073B5734A73480D00002401F0FF
:1038A00021F9A04211D109227049280007F01DFA20
:1038B000A0420AD109356E49280007F005FAA04256
:1038C00005D16C48FFF7CAFF0124200076BD6A4984
:1038D000280007F0F9F9002801D16848F2E76849A3
:1038E000280007F0F1F9002815D1664805F0E6FB3D
:1038F000654C0A2805D12000FFF742FEFFF7BCFF08
:10390000E2E76B46DD1D2800FFF79CFF29782000C9
:10391000FFF73CFED8E75D49280007F0D5F90028FD
:103920000FD15B48FFF79AFF574C2000FFF736FE98
:10393000FFF7A2FF5748FFF791FF2000FFF736FE81
:10394000DCE75549280007F0BFF900280FD150489F
:10395000FFF784FF4C4C2000FFF730FEFFF78CFF91
:103960004C48FFF77BFF2000FFF72EFEC6E74B49D0
:10397000280007F0A9F900280FD14548FFF76EFF8E
:10398000414C2000FFF726FEFFF776FF4148FFF786
:1039900065FF2000FFF726FEB0E74149280007F049
:1039A00093F900281ED1374805F088FB364C0A28C9
:1039B0000ED13748FFF752FF2000FFF71BFEFFF73D
:1039C0005BFF3448FFF74AFF2000FFF71BFE95E737
:1039D0006B46DD1D2800FFF735FF29782000FFF733
:1039E00019FE71E72F49280007F06EF9002808D169
:1039F0002D48FFF71DFE2D4B012800D02C4B180041
:103A000060E72C49280007F05FF9002803D1264819
:103A1000FFF716FE72E72849280007F055F9002441
:103A2000A04200D051E7174C200005F047FB1E4D87
:103A300006000A280CD12800FFF70AFE3200010018
:103A4000200005F060F82021200005F002F83BE797
:103A50006B46DC1D2000FFF7F5FE21782800FFF7FC
:103A6000BDFE31E721BE0000F105002007AE0000D9
:103A7000D6BE0000DEBE0000CDBE0000EABE0000E3
:103A8000F4BE0000182F00200A070020FFBE00002F
:103A900008BF00000EBF000016BF000021BF0000DD
:103AA0002ABF000037BF00000B07002018BE00002F
:103AB0001DBE00003EBF000044BF000007B502224B
:103AC00001AB5970E03019001A7000F0C7F80EBD54
:103AD00007B50D2201AB1A705970E0300B3A19008E
:103AE00000F0BCF80EBD37B50B236A46E03013700A
:103AF00069460122040000F0B1F8002802D001203C
:103B000040423EBDA0239B00013BFDD101AD0222FE
:103B10002900200000F0E4F80228F0D168782B7822
:103B20000002C018EDE737B56B46E030197001228E
:103B30006946040000F092F8002802D001204042BB
:103B40003EBDA0239B00013BFDD101AD0122290018
:103B5000200000F0C5F80028F0D02878F0E710B574
:103B60000121FFF7E0FF10BD10B50821FFF7DBFFD3
:103B700010BD10B50D21FFF7D6FF10BD10B50C21FB
:103B8000FFF7D1FF10BD13B50400062200216846DF
:103B900006F0D8FF20000622E030694600F0A0F8C9
:103BA000831F5A4253412200D83213700023062843
:103BB00016D16A461278012A12D169462300497843
:103BC000E833197069468978EC3459706946C978C8
:103BD000997069460979D9706B465B792370130037
:103BE000180016BD10B50400E831082206F0A1FF48
:103BF000200010BD0B00F0B58BB0803B03AF3B70D5
:103C00000300D9331B7805000093182301244B438C
:103C10000193019B0099E318013BEB5C0022994260
:103C200001D25B1ADAB20C4B03219E5C20003E5598
:103C300006F0FEFE012903D1192E01D91A3E3E5588
:103C40000134192CE5D1280022003900E03000F0C1
:103C500005F80BB0F0BDC0464CBF0000F7B51E4CD8
:103C60000E0001682000C9B2170004F07EF900219F
:103C70001A4B0A00FF2518122A40974210D9725C8D
:103C800001315A4052B2D3B21B015A40D2B2131181
:103C90009C466546D30012026B4010434340E8E760
:103CA00001AD28703A00310020006B7004F0D0F8AC
:103CB000002801D10120FEBD02222900200004F0CD
:103CC000C7F80028F6D00121200004F0C1F9431EF6
:103CD0009841C0B2EFE7C04644280020FFFF000033
:103CE000F7B50368204D070001911400D9B20232E4
:103CF0000123280004F051F9002834D00026FF23C6
:103D000028003340A34205D204F0DFF9019B985507
:103D10000136F4E704F0D9F90600280004F0D5F9DB
:103D20003602301883B29C460021FF260F4A0B0052
:103D300033409C4210D9019B5B5C013153405BB224
:103D4000D8B200014340DBB21D11D80012121B0291
:103D500068401A434240EAE7E0B2624503D00020DF
:103D60003B7901333B71FEBD44280020FFFF00007A
:103D70007047704710B5064B1978064B1970064B03
:103D80001B788B4203D3054B188801F07BF810BDDC
:103D90007C020020720500207305002074050020BD
:103DA00010B50A1C054B06491B780978994204D3C3
:103DB00004490888190001F07FF810BD7205002041
:103DC000730500207405002010B5054C2388002BD6
:103DD00005D1044B0800197000F0EEFF208010BDE3
:103DE000740500207305002010B5054B02781B7880
:103DF0009A4203D1034B1868FFF7BCFF002010BDA7
:103E0000160000203006002007B5054A054B127841
:103E10001B8805480092054A01F0ECF80EBDC0462B
:103E200073050020740500201D0600204CC0000012
:103E3000FF22014B1A7070477105002010B5010078
:103E4000014803F049FA10BD0C070020F7B5002423
:103E5000244F254B3E881C800194244A3B881288BD
:103E60009B189E423DDA751C3000ADB2FFF7E6FFAD
:103E70000D280BD806F062FC2807070C0C0C07076E
:103E8000070909090E1E0236B5B200242E00E4E728
:103E90000336F9E72800FFF7D1FF6C1CA4B2060037
:103EA0002000FFF7CBFF06430235F4B2ADB2002C81
:103EB000F0D1EBE72800FFF7C1FF0135ADB20400F8
:103EC0002800002CF7D1E1E7019B07490133DBB261
:103ED0005A0001933B88EB1A8B52002C01D101341C
:103EE000D4E7F7BD780500207C0500207A05002086
:103EF00010B5040000F01AFC034B1880034B1C8023
:103F0000FFF7A4FF10BDC046780500207A05002009
:103F10007FB501AC20800E0015008B0710D582B252
:103F200002AB1A80104B82221978029803F0EEF847
:103F3000002D05D10D48FEF76FFE0D4803F02CFE55
:103F4000F30710D5228803AB1A80074B812219781A
:103F5000039803F0DBF8002D05D10448FEF75CFE62
:103F6000034803F019FE7FBD74C00000FC0600206A
:103F7000E827002073B50E001D001400FFF75EFF58
:103F800001AB5E7018702A0021000198FFF7C0FF96
:103F900073BD0000F0B500252E00524B4900CF5AEA
:103FA000514B85B018883F18BFB23800FFF746FF65
:103FB0007C1C0138A4B20C2800D990E006F0BEFBAE
:103FC000141C24313C4750558D070D5B78000025AB
:103FD000300004F0C5F92700E7E74448FEF71CFE6F
:103FE000434803F0D9FDF3E72000FFF727FF060061
:103FF0000237BFB23C00EBE702372000BFB2FFF749
:104000001DFF04F0ADF9F5E72000FFF717FF2B00C7
:104010000222FC1C02370100A4B2B8B2FFF7AAFFCB
:10402000D6E72000FFF70AFFFC1C02370100A4B20C
:10403000B8B22B000122F1E72000FFF7FFFEFC1CC5
:1040400002370100A4B2B8B200230322E6E72B0036
:1040500002220237BFB200212000FFF78BFFC9E721
:104060000237BFB22B000122F5E700230237BFB2AF
:1040700003221900F0E72000FFF7E0FE671CBFB243
:1040800001903800FFF7DAFE6A460700127903ABA9
:104090005A701870002203210398FFF739FF30008F
:1040A00004F05EF9019B0234A4B23B43E3D18FE7F5
:1040B0002000FFF7C3FE002203AB18705A700321E3
:1040C000013407000398FFF723FFA4B2300004F087
:1040D00047F92000002FECD17AE7012578E705B0F9
:1040E000F0BDC0467C05002078050020FC060020BD
:1040F000E827002010B54A78097812028918094A81
:1041000089B28A1892B200241F2A08D803220134E7
:104110001340022B03D15C39C9B2FFF73BFF2000EB
:1041200010BDC046A42E0000F7B5304A01903048BB
:104130000D00002400F0D6FC0600A04254D1072256
:104140002C49280006F0D1FD340000284CD1073559
:104150002949280006F0B8FD041E36D1274E30004C
:1041600004F0ACFF0A2814D1254B1B88A3422CD99C
:10417000244B18880019FFF761FE0A220100300065
:1041800004F0D1FC01342021300004F062FCA4B220
:10419000EAE7300004F092FF1B4F0A2810D00122FA
:1041A0000021300004F03AFF631C9BB20093154BD2
:1041B000C2B219883800091903F09AF8009CE8E7A0
:1041C000380003F0ADF8FFF741FE1049280006F073
:1041D0007BFD0124011E07D12200084804F01EFFC8
:1041E000C1B20198FFF7D6FE2000FEBD75C00000E9
:1041F000F10500208FC00000A0C00000182F002093
:104200007A050020780500200C07002087C00000F8
:1042100070B5074E0D0004000100300003F05CF89B
:10422000611C2870300003F057F86870280070BDDA
:104230000C070020F8B500242600134B134F1C7008
:10424000134B3D881C80134A3B8812889B189D4263
:1042500010DA2900104803F03FF80235ADB200280B
:1042600009D101363B88F6B209497200EB1A8B522C
:10427000002C02D0F8BD0024E5E7034B024A1B786E
:10428000012401331370DEE7BB050020BC050020CC
:10429000C0050020BE0500200C07002070B50500F9
:1042A00008000C0000F042FA044B1880044B1C80FC
:1042B000044B1D70FFF7BEFF70BDC046BC0500205B
:1042C000BE050020E0050020F7B51C001A4B0D1CB0
:1042D00019781A4F431A06005800C05B013A01339F
:1042E0005B0052001218D85B92B20023904219D999
:1042F0001348007841188E4214DC124B01A918882B
:10430000101880B2FFF784FF601E0123032809D82C
:1043100006F014FA0A02020C8222291C019802F00B
:10432000F5FE01231800FEBD8322F6E70648FEF7DE
:1043300073FC8122F1E7C046E0050020C0050020A3
:10434000BB050020BC050020FC060020F0B5324A69
:1043500085B032480C0000F0C5FB002305009842F0
:104360000FD109222E49200006F0BFFC2B000028A7
:1043700007D120002B49093006F0A6FC041E03D00B
:104380000123180005B0F0BD274E300004F096FE62
:104390000A281BD1254B1B88A342F1D9244B03AD1E
:1043A00018882900201880B2FFF732FF6B7829782F
:1043B0001B02C91889B20A22300004F0A4FB02349F
:1043C0002021300004F045FBA4B2E3E7300004F004
:1043D00075FE184F0A2819D001220021300004F080
:1043E0001DFE0500124BC2B21988380061188BB24D
:1043F0001900019302F090FF019B2D12EAB2591CA3
:104400003800023402F088FFA4B2DFE7380002F07F
:1044100087FFFFF70FFFB3E797C00000F10500200B
:10442000A4C00000A0C00000182F0020BE0500207E
:10443000BC0500200C070020F0B5134B85B01B789D
:1044400003AD834207D800232B806B7828781B02AA
:10445000184305B0F0BD502444430C4FC9B2641852
:10446000640039880A4EA4B209190131300002F003
:1044700033FF398801900919300002F02DFF6B4697
:104480001B7968702B70E0E7E2050020E40500204E
:104490000C07002013B5094B01AC1B78834207D9E8
:1044A000FEF742FC2080637820781B02184316BD7B
:1044B000C01AC0B2FFF7C0FFF4E7C046E60500200F
:1044C00010B5044800F060F9034B00201A78034B44
:1044D0001A7010BDE705002006000020E605002048
:1044E000044B10B51870A023584300F01FF9024B7D
:1044F000188010BDE2050020E4050020094B0A49A0
:104500001B7810B5DB090870084A04D0084B13600B
:10451000FFF7E6FF10BD074B1B78C3180B70064B67
:10452000F5E7C046EC05002006000020080000204A
:1045300039440000E605002095440000F7B50A4E16
:1045400001AF3980094C0A0431884500491920001F
:10455000120E02F0CDFE31883A784919013120005F
:1045600002F0C6FEF7BDC046E40500200C0700209F
:10457000F0B50F00002585B00190EBB20093019BD0
:10458000AB4213D00024211C0098B847084E81B2DA
:104590000A223000013404F0B6FAE4B220213000DF
:1045A00004F057FA502CEED10135E6E705B0F0BD26
:1045B000182F002073B5404A40480D00002400F039
:1045C00091FAA04220D107223D49280006F08DFB38
:1045D000A04219D107353B49280006F075FB0600BB
:1045E000A0422ED1384C200004F068FD02000A28B9
:1045F0000CD1364B20001978C90904F094FA202117
:10460000200004F026FA0124200076BD01223100AA
:10461000200004F003FD01ABC4B21870200000F0CC
:1046200015F92B4B2B491B782B4A0B70002C02D011
:104630002A4B1360E7E72A4800781B180B70294BB8
:10464000F7E72949280006F03FFB002805D1244B55
:1046500026491878FFF78CFFD5E72549280006F092
:1046600033FB0028D0D1184D5026280004F026FD39
:104670000A2803D1164B19491878EBE7280004F0F3
:104680001DFD0A2814D0124B1B7873439C420FDA8D
:1046900001220021280004F0C1FC01AB02121870B5
:1046A0005A70200001990134FFF748FFA4B2E5E7F2
:1046B000104802F035FEA6E7AEC00000F10500206C
:1046C000DDC00000D2C00000182F0020EC05002043
:1046D000E205002006000020080000203944000008
:1046E000E605002095440000E5C00000292D0000EB
:1046F000EDC000000C07002010B5054C01000A2297
:10470000200004F010FA2021200004F0A2F910BDCE
:10471000182F00200020034B1B78834201D0024B4E
:1047200058887047EA050020EC05002013B56B4659
:104730000024991D074B08801B78A34208D1064A24
:1047400083B214880548E3181380022202F064FA49
:10475000200016BDEA0500200E000020E80600201B
:10476000F7B507000D0016000C000B1D0193731B1D
:104770001A5D2100380002F0CFFD019B01349C42FC
:10478000F5D13000FEBD000070B50025114C2900A8
:10479000200002F0A1FD104A6E1C50553500042E79
:1047A000F4D15378FF2B12D11178803B0B40D8B253
:1047B0007F2803D1C90901D083431370012300214D
:1047C00020005370FFF7CCFF200002F0A9FD00206D
:1047D00070BDC0460C070020EC05002010B5064C4B
:1047E000064A00212000FFF7BBFF200002F098FDE1
:1047F0000122034B1A7010BD0C070020EC050020AD
:10480000EB05002070B50F4B05001B780E4C834262
:1048100008D9FEF70BFB7F22290023781140934330
:104820000B4323707D2D06D97F22237893431A00F2
:104830007E2313432370FFF7D1FF20784006400EFC
:1048400070BDC04606000020EC0500207F23094A09
:10485000C101107810B5184008431070C0B2034071
:104860007F2B03D19843013B18431070FFF7B6FF2D
:1048700010BDC046EC050020012270B5104D114B53
:10488000102128001A7002F0B3F90F4C6378012B45
:1048900003D000220D4B1A7070BD62880C492B8822
:1048A0008A420AD16380FFF799FF20784006400EC4
:1048B0007D28F1D8FEF7BAFAEEE79A42ECD1F4E798
:1048C000E8060020EA050020EC050020EB050020AA
:1048D000FFFF0000044B10B51B78002B01D1FFF740
:1048E000CBFF002010BDC046EA05002070B5304A5D
:1048F00030480C00002500F0F5F8A8423FD109220D
:104900002D49200006F0F1F9A84238D109342B498D
:10491000200006F0D9F9A8420AD1294C200004F061
:10492000CDFB0A283BD1274B18784006400E2AE0E1
:104930002549200006F0C8F9002827D02349200087
:1049400006F0C2F900281CD02149200006F0BCF96D
:10495000002814D11F4B1E88FFF7DCFE0500184C01
:104960000A223100200004F0CEF81B49200004F098
:1049700068F80A222900200004F0C5F80125280063
:1049800070BD104B5878FFF7B7FEF7E7134B187858
:1049900000F0C4F820210A4804F05BF8EEE7012299
:1049A0002900200004F03AFBC0B2FFF72BFFE5E737
:1049B00020C10000F105002064C100006EC10000AC
:1049C000182F0020EC0500207BC10000D6BE00009F
:1049D00060C10000E806002082C10000EB05002055
:1049E00070B5264A26480E00002500F07BF8A84244
:1049F00036D12449300006F067F90400A8421AD1E4
:104A0000214D280004F05AFB0A282BD08026B6013D
:104A1000280004F053FB0A2821D00122002128009D
:104A200004F0FCFA2100C2B20134184802F060FC24
:104A3000B442EDD113E01649300006F045F90028E4
:104A40000ED18021134B104C1B888901C91A0A22F0
:104A5000200004F058F82021200003F0FAFF01257F
:104A6000280070BD8025AD012100084802F034FC0B
:104A70000134FFF741FEAC42F6D1F0E7F4C000008C
:104A8000F105002010C10000182F00200C070020A5
:104A900004C100000E00002010B5141C0A78292A59
:104AA00005D14A78002A02D15AB2002A01DA002040
:104AB00010BD03221340022BF9D101F09FFB002807
:104AC0000BD101F0F3FA0028F2D0201CFEF7CEFC47
:104AD000012001F095FC0120EAE701F0D9FA002855
:104AE000EFD1F2E710B508000649140006F0ECF823
:104AF0000023984204D12100034803F0B7FF0123AB
:104B0000180010BD84C10000182F002010B5024A03
:104B1000FFF7E8FF002010BD84C1000010B5044974
:104B2000002800D10349044803F08BFF10BDC046A4
:104B30008DC1000092C10000182F002010B5084C54
:104B4000200004F0A1FA002808D0200004F0B6FAF2
:104B50000A2803D0200004F0BFFAF6E710BDC046D3
:104B6000182F0020F7B51C4C0126200004F08CFA09
:104B700000282CD0200004F0AFFA184D731EEB185B
:104B800018702000F7B2019304F098FA0A2807D0B1
:104B9000019B1B78202B03D00136212EEAD1202740
:104BA0007A1EA95C0023202913D1AB542800FDF7FD
:104BB000F5FF0B49200003F059FFFFF7BFFF20006E
:104BC00004F07CFA0A2802D1200004F085FA0020C3
:104BD000FEBDEB55EAE7C046182F0020F205002085
:104BE00089C10000FA2110B5024B8900186805F050
:104BF000AFFD10BD100000200B4B10B51A68002A45
:104C00000FD00A4B1B78002B0BD0094B09491B68AE
:104C100009685B1A9A4204D200F094FC0122064B08
:104C20001A70002010BDC0461000002017000020A0
:104C300024020020180600201C06002010B5074C96
:104C40002378002B03D000F05BFC00232370044B7F
:104C500000201A68034B1A6010BDC0461C060020D5
:104C60002402002018060020FA2370B504009B00DF
:104C700043430A4A0A4E13600A4BC2B21D883000F1
:104C8000290002F049FB2204691C3000120E02F0D8
:104C900043FB300002F044FB70BDC0461000002012
:104CA0000C0700201406002073B50220FFF73EFD1C
:104CB0000D4B0E4E188001000500300002F00CFB79
:104CC0006B469C1D2070691C300002F005FB607073
:104CD0002288074B9A4202D1064B1B68238020880A
:104CE000FFF7C2FF002076BD140600200C0700204D
:104CF000FFFF00001000002070B5184E1848320069
:104D00000D000024FFF7EEFEA0421CD13100280068
:104D100005F0DAFFA04216D1124D280004F0CEF9BA
:104D200006000A2811D1FA210F4B8900186805F0F6
:104D30000FFD32000100280003F0E9FE20212800C9
:104D400003F087FE0124200070BD0122210028000D
:104D500004F064F980B2FFF787FFF3E798C1000021
:104D6000F1050020182F00201000002010B5054C80
:104D700001000A22200003F0D6FE2021200003F0CB
:104D800068FE10BD182F0020094B07B51B78002BBB
:104D90000DD0002201AB1A809A70019800F0F0FA51
:104DA000044B1868002802D003685B68984707BD69
:104DB000170000203006002070B5074C050023883E
:104DC000002B03D13020FFF7B1FC20804220684344
:104DD000FFF7ACFC70BDC0461E06002010B50C00ED
:104DE00049080918054802F077FA02000011C0B21C
:104DF000E30701D50F20104010BDC0460C0700206E
:104E0000F7B50324124B44431888124F2418A4B258
:104E10002100380002F060FA611C0600380002F040
:104E20005BFA0500A11C380002F056FAF6436B4607
:104E3000ED431E705D701A88FF231100120A19409D
:104E4000120283431B040A431A431000FEBDC046EE
:104E50001E0600200C07002007B5FFF7BFFFFFF775
:104E6000CFFFFF210300020A0A4012020B40134346
:104E7000000C034A08400004134018430EBDC0460E
:104E8000FFFF00FF37B5422500244D434519ADB261
:104E9000A1B22800FFF7E0FF01AB18700204000286
:104EA000120E000E98705A70E0B20199013400F0B1
:104EB00017FA842CECD137BD422313B55943D3B232
:104EC0004018141C80B2FF214F2B01D8084AD15C36
:104ED00089B2FFF7C1FF01AB187002040002120E85
:104EE000000E98705A700199201C00F005FA13BD4D
:104EF000A2BC000010B5044804F0E0F80A384342B0
:104F00005841C0B210BDC046182F0020F0B5344E35
:104F100085B0320033480C00FFF7E4FD05000020A7
:104F2000854220D12000310005F0CEFE040028008B
:104F3000002C18D1FFF7DEFF002816D02000FFF765
:104F40005FFF06040502360EC0B2FFF70FFF2D0EFD
:104F500030000134FFF70AFFE4B22800FFF706FF34
:104F6000102CEBD1012005B0F0BD0400FFF7C2FF0B
:104F70001D4D061E2ED11D4F01000122380004F0E8
:104F80004DF8310000900122380004F047F831005C
:104F900001900122380004F041F8154B07001E88EB
:104FA000009BA619DA43B6B2D2B23100280002F053
:104FB000B3F9019B711CDA432800D2B202F0ACF9BC
:104FC000FA430334D2B2B11C2800A4B202F0A4F90F
:104FD000302CCBD1280002F0A3F9FFF7D5FEC1E7B2
:104FE000ACC10000F10500200C070020182F0020A4
:104FF0001E060020F0B585B002932F480AAB0C00C6
:1050000017001E78FFF76EFD05000020854251D184
:105010002000390005F058FE04002800002C49D17A
:10502000422373430193FFF765FF00281BD0F0264E
:10503000019AA3B293423CD2029B2048191902F074
:105040004BF905000011C0B2FFF790FE29001C4F7C
:10505000B1430A22380003F056FD2021380003F046
:10506000F8FC0134E4E70400FFF744FF134F061E89
:105070001AD1019AA3B29A4216D9114D0100012208
:10508000280003F0CBFF012203903100280003F039
:10509000C5FF039B1A01029B12181919D2B23800DE
:1050A00002F026F90134DFE7380002F039F9FFF7A2
:1050B0006BFE012005B0F0BDF10500200C070020BB
:1050C000182F00207047704713B508780C00C043B4
:1050D000C3B21A0023209911C9435A43404258438E
:1050E00052430012120E8A1A2330D2B2C0B2FF21EC
:1050F00001F0BCFD6B466A46187003041B0E53702A
:1051000000022378000E9070032B0ED8002323702A
:105110006B461A8899781000FF23120A1840120271
:105120000B401B041043184316BD043BEFE700007F
:10513000F0B5234F85B03B680500002B3DD0214ED4
:1051400003893268D31A204A9BB212889A4234D219
:105150000024E3B20093502C2DD02B1902AA019306
:105160009B7AD11C0B70002B10D0386803681B6829
:10517000984703AB187002040002000E120E9870DC
:105180005A706B460399187800F0B6F802AB0333F7
:105190001B782A199372002B0BD10C4A5178137883
:1051A00009020B439178090419436B46187800F003
:1051B000A3F80134CDE733682B8105B0F0BDC046BC
:1051C00024060020240200201400002021060020D4
:1051D00010B5416000210400044B018108330360D5
:1051E00050220A3005F0AEFC200010BDB4C1000012
:1051F000D2B24F2A0BD8074900780978884206D1E5
:105200009B0704D5044B1B689A18FF239372002058
:105210007047C0461600002030060020014B0833BE
:1052200003607047CCC10000FF22014B1A70704729
:105230002006002070B50A4D04000122280000213C
:1052400003F0ECFE012220700021280003F0E6FEAE
:10525000012260700021280003F0E0FEA07070BD04
:10526000182F002010B5012204000021024803F08D
:10527000D5FE207010BDC046182F002070B5084D17
:105280000400280002F0C3FA2100002803D12800FE
:1052900002F03DFB70BD034802F00BFCFAE7C0468C
:1052A000502700209C27002010B5054C01000A2241
:1052B000200003F038FC2021200003F0CAFB10BDC1
:1052C000182F002010B50A7804780023944205D1E5
:1052D000437848781B1A58424341DBB2180010BD8E
:1052E0001FB50A1C03AB090C1A8099700399FDF7CE
:1052F00025FF05B000BD00001FB50B000C1C1B0AEC
:10530000090CC2B2E4B2DBB2C9B2FF204F2A01D805
:105310000448805C03AA1470537091700399FDF7E0
:105320000DFF1FBDA2BC000007B5FDF77BFF020407
:1053300001AB120E18705A701B88FF211A00000C66
:105340001B0A0A401B0208400004134318430EBD09
:10535000034B10B51B78002B01D0FDF7C1FE10BD2B
:10536000170000200121044A044813680B4001D1B2
:10537000037011607047C046280600202C060020EC
:1053800013B500240190FFF7EDFF200001340199CF
:10539000E4B2FFF7A5FF842CF7D113BD07B50022B7
:1053A00001AB1A809A700198FFF7EAFF034B186867
:1053B000002802D003685B68984707BD30060020CC
:1053C00010B5094B1B7883420DD9084B187001F0BA
:1053D00005FE074B1860074B1B78002B01D0FFF729
:1053E000DDFFFDF703F810BD340600201600002095
:1053F000300600201700002010B5064B1878013049
:10540000C0B21870044B1B78834200D80020FFF70D
:10541000D7FF10BD160000203406002010B5064B43
:105420001A78002A01D1054A1278013A1A701878C0
:10543000FFF7C6FF10BDC04616000020340600204E
:10544000294B73B51B78002B3CD00023274D01ACB2
:105450002370637021002800FFF734FF00281AD161
:10546000E130FFF70BFF061E03D1E520FFF706FF33
:10547000060000236A4613704333537069462800C0
:10548000FFF720FF00281FD0002E1DD1FFF7B4FF2B
:1054900000232B706B70164B164C174D22881B681F
:1054A0009B1A2A789BB29A420CD2FFF751FF2288AE
:1054B0002B789B182380114B1868002802D00368B2
:1054C0009B689847002076BD0123237042336370A8
:1054D00021002800FFF7F6FE002801D0002ED5D1CC
:1054E000FFF79CFFD4E7C0461700002035060020D8
:1054F000240200203806002018000020300600207A
:10550000012210B5034B1A70FFF748FFFDF7E8FDC5
:1055100010BDC0461700002013B5002401AB1C804D
:105520009C700198FFF72CFFFCF7BAFF044B1B7827
:10553000FF2B02D12000FFF743FF002016BDC0461D
:105540001600002013B5002401AB1C809C7001984C
:10555000FFF716FFFDF7C4FD014B1C7013BDC046DD
:1055600017000020F0B54F7885B00D000020432FC4
:1055700005D1032213400193022B02D0012005B074
:10558000F0BD02AB18705F7019002800FFF79AFE9B
:10559000002805D002222900104805F0CAFAEDE7DC
:1055A000012403AE3100280034707770FFF78AFEC3
:1055B0000028EFD16B461B79310028003370FFF7CC
:1055C00081FE0028DAD0064B1B78002B03D0FFF7B2
:1055D000B9FF2000D3E7FFF793FFFAE73506002075
:1055E0001700002010B5FCF74DFF014B187010BDDF
:1055F0003406002010B5044803F060FD0A38434229
:105600005841C0B210BDC046182F002073B55E4A85
:105610005E480D000024FFF765FA0600A0426AD13B
:1056200004225B49280005F060FB3400002862D1A9
:1056300004355849280005F047FB002811D16B4676
:10564000DD1C2800FFF70EFEFFF7D4FF01AC002899
:1056500053D12000FFF7EEFD28780199FFF740FEB7
:1056600048E04D49280005F02FFB00283CD04B496D
:10567000280005F029FB00282DD04949280005F015
:1056800023FB061E11D04749280005F01DFB00280A
:1056900031D1FFF7AFFF002844D101AC2000FFF764
:1056A000E1FD2078FDF7D8FC24E0FFF7A3FF041EFE
:1056B0004DD1FFF757FEFFF79DFF00281AD101A833
:1056C000FFF7B8FD200001340199E4B2FFF708FEAE
:1056D000842CF0D10EE0344803F0F0FCC0B20A286C
:1056E00023D1324B18781AE001A8FFF7A3FD0198E7
:1056F000FFF746FE0124200076BD2878FFF714FE50
:10570000050403021B0E2D0E2070A37065701C0093
:10571000C0B2FFF7C9FD2800FFF7C6FD2000FFF764
:10572000C3FDE7E7FDF7B2FCF9E76E2802D1FFF70A
:1057300063FEDFE7702802D1FFF770FEDAE701AC05
:105740002000FFF78FFD2078FFF73AFED2E7FFF742
:1057500009FE34002000FFF7E7FD01AB0604050257
:105760001870360E2D0EC0B25E709D700134FFF7BA
:105770009BFD3000FFF798FDE4B22800FFF794FD91
:10578000842CE7D1B6E7C046D8C10000F10500205F
:105790000CC2000011C2000014C200001BC20000B5
:1057A00006C2000020C20000182F002016000020B2
:1057B00013B5134BC27A41681B6804009B1A087822
:1057C000DBB2984218D21218E2724A782089217B03
:1057D00001F04CFA01AB187002040002120E000E28
:1057E0005A709870A37A22899B189BB2FE2B04D81A
:1057F00023810198FFF7C4FD13BDFF3BF8E7C046C6
:105800002402002037B54368C27A19781C4B040083
:105810001B689B1ADBB299422FD252180121C27227
:10582000184A13680B4002D1174811600370002515
:105830002089842D1BD0AB081B01C01880B2FE2824
:1058400001D9FF38FAE76368217B5A7801F00EFA34
:1058500001AB187002040002120E000E98705A700C
:10586000280001990135FFF73BFDEDB2E0E7A37A8F
:10587000C01880B2FE2801D8208137BDFF38FBE771
:1058800024020020280600202C06002041707047CA
:105890004170704728213222034B19705A70034B14
:1058A00019705A707047C0463A0600203C06002026
:1058B00010B5012204000021024803F0AFFB207064
:1058C00010BDC046182F002010B5044803F0F6FBA9
:1058D0000A3843425841C0B210BDC046182F0020BC
:1058E00037B54E4A4E480C000025FFF7FBF8A8429A
:1058F00012D106224B49200005F0F7F9A8420BD13E
:1059000006344949200005F0DFF9A8420FD1FFF71E
:10591000DBFFA84202D0012528003EBD6B46DC1DFE
:105920002000FFF7C5FF2078FDF7B0FAF3E73F4905
:10593000200005F0C9F900280CD1FFF7C5FF0028A9
:10594000E9D16B46DC1D2000FFF7B2FF2078FDF7A0
:1059500083FAE0E73649200005F0B6F9002812D1B5
:10596000FFF7B2FF0028D6D16B46DC1D2000FFF701
:105970009FFF2078FDF720FAFFF7D0F820212D486F
:1059800003F067F8C7E72C49200005F09DF90028CF
:105990000CD1FFF799FF0028BDD16B46DC1D20001C
:1059A000FFF786FF2078FDF741FAB4E7234920008E
:1059B00005F08AF9051EAED1FFF786FF041E12D04E
:1059C0002C002000FDF7F8F91A4D01000A222800EA
:1059D000013403F098F8E4B22021280003F039F8EC
:1059E000202CEED197E7FDF721FA2000FDF734FADD
:1059F000FFF76AFF002800D08DE76B46DD1D280009
:105A0000FFF756FF2B78002B02D02000FDF73EFA5F
:105A10000134E4B2202CEBD17DE7C0465CC200002B
:105A2000F1050020A4C20000ADC20000ABC200001E
:105A3000B6C20000182F0020BFC200009EC20000A6
:105A400082B0402920D83A2936D220292FD012D826
:105A50000A2925D004D8082925D20023180003E0FC
:105A6000002329201B29F8D1FF22134010401B02DC
:105A7000184302B0704730291CD82139124B490015
:105A8000591808784B78EFE7602903D85B2915D3BC
:105A90004439F3E77A2915D97E29DED85E39EDE756
:105AA00000232820E0E72231C8B20023DCE70023EE
:105AB0002C20D9E71339F7E72A39DFE73D39C8B297
:105AC0000823D1E75D39EFE7C6C20000F0B54C7896
:105AD0000020602C0ED1084E01303478072C09D8F4
:105AE000032565430F78054924186F5449194A70F6
:105AF0008B703470F0BDC046580600204006002070
:105B00000020014B187070475806002013B5140090
:105B1000802201AB1880074B0A430198197801F0E5
:105B2000F5FA002C05D10448FDF776F8034802F099
:105B300033F813BD74C00000FC060020E8270020E5
:105B400037B50D00022101AB188014000D4202D0C0
:105B50000198FFF7DBFF01210D4203D022000198DD
:105B6000FFF7D4FF37BD73B506000D002978002973
:105B700016D03000FFF764FF01AC2080C0B20028CF
:105B800002D16378002B09D0002202212068FFF7A0
:105B9000BDFF002201212068FFF7B8FF0135E5E7CE
:105BA000080076BDF0B585B0002900D17FE0002562
:105BB0002E0008784C1C01380C2878D804F0BEFD63
:105BC00014171C25313A404675070D4D630000251A
:105BD000300002F0C5FB2100EBE73648FDF71CF86A
:105BE000354801F0D9FFF3E78C1C4E78F0E7487890
:105BF0008C1C02F0B5FBEBE74A78CC1C897803AB30
:105C000019705A7002212A0007E04A78CC1C897862
:105C100003AB19705A7001212A000398FFF790FF17
:105C2000D6E74A7803AB5A700022CC1C89781970E9
:105C30000321F2E74A7803AB1A708C1C0022E0E7DC
:105C40004A7803AB1A708C1C0022E3E74A7803AB56
:105C50001A7000228C1C5A70EAE76A4623780234D4
:105C60000193631E1F78127903AB1F705A700321D2
:105C700000220398FFF764FF300002F071FB019BE4
:105C80001F43EAD1A4E70022631C2778019303ABEA
:105C90001F705A7003210398FFF752FF300002F083
:105CA0005FFB019C002FEED192E7012590E705B044
:105CB000F0BDC046FC060020E827002070B5002497
:105CC00003250C4B1B78A34211D92B0063430A4ACE
:105CD0000A48D1184E7889780670D05CFCF7E2FB50
:105CE000013401000648FFF75DFFE4B2E9E7002058
:105CF00070BDC04658060020400600201900002054
:105D00003F060020F7B500241C4B1B780193019B34
:105D1000A34231D90C23002563430093009B184A0A
:105D2000EB189B181879EFB2002823D00138FDF743
:105D3000EBFB061E03D00135052DEFD12F00FDF73B
:105D4000F9FB874213D1002E11D00E4E0E4D326852
:105D50002B88D31A0D4A9BB212889A4207D20C2381
:105D60006343074A2000D358984733682B80013497
:105D7000E4B2CCE70126E2E70020FEBD43AE00001E
:105D800044AE0000240200205A0600201A00002021
:105D90001A4B13B51A491A681A4C0B8892B2D31AC7
:105DA00024889BB29C4220D20A800121014006D067
:105DB0000021154B1B785BB200910A0012E002240F
:105DC000044004D0104B1B785B425BB2F4E7042123
:105DD00001400BD00C4B22001B7821005B425BB2D0
:105DE00000932300094801F0B5FE13BD0307FCD55D
:105DF000054B1B785BB200930B00DEE7240200200A
:105E0000620600202200002024000020E827002055
:105E100010B5054C200001F0BFFE200001F0A3FEEC
:105E20000020024B187010BDE82700205D060020FE
:105E300070B5224B1B78002B03D1214A1370002030
:105E400070BD204A204812680188204C92B2511A35
:105E5000248889B28C42F2D21D4C028021881D48D0
:105E6000511A008889B288420AD21B48144D06781C
:105E7000FF202978801B814201DA8919297022804C
:105E80000021DA0703D5154A1178494249B29A0729
:105E900003D5124A1278511849B200205A0703D587
:105EA0000E4A1078404240B21B0703D50B4B1B78BB
:105EB000181840B201F006F8C1E7C0465D060020A0
:105EC000F4060020240200205E06002020000020AE
:105ED000600600201C0000201E000020250000207D
:105EE000F7B54A780020502A3ED10A7840261000A3
:105EF00020250324304015401C4000280ED0002DE2
:105F00000ED1B24315009B0725D4012C2BD11100D3
:105F1000414801F032FE00F057FF24E0002D24D06C
:105F2000022C20D10125431E984113002B40AB4089
:105F30001440184323005C1EA3419B0003435007F9
:105F4000C00FC00003431007C00F0001184300F04A
:105F50004BFF280008E0022C01D100F03BFF290094
:105F60002D4801F006FE0120FEBD022C0BD12B4A6C
:105F70002B48126892B202802A4802802A48008880
:105F8000121A2A48028002252B400AD00878C3063C
:105F900002D5FFF7FDFEE6E7254B1A78104318708F
:105FA000E1E7012CDFD1032621480D780278AA43CE
:105FB00002700A78164006D10C25154009D12E0032
:105FC000AC462C000BE0102515401ED01D0026000D
:105FD000F6E7102515401BD02500B44634000121FA
:105FE0000D4804274156013C022203232140644608
:105FF000C7578256C356013D013C013E2F40224007
:106000003340009701F0A6FDADE72E00A446D8E787
:106010002E00AC46E3E7C046E8270020240200201B
:106020005E0600206006002022000020620600209C
:106030005D06002013B50024094801F0D1FD684633
:10604000084B998ADA8A1C761B6904704180828029
:10605000847169461B68082203489847200016BDD2
:10606000E82700202028002030280020054A064B81
:1060700010881B68054A1B1A10889BB29842804101
:106080004042704766060020240200202A000020BB
:106090000023054A5900885C8007C00F02D10133F4
:1060A000102BF7D17047C0466A0600200023054A2E
:1060B0005900885C0007C00F02D10133102BF7D1C3
:1060C0007047C0466A060020FF22031C12021040DF
:1060D000DBB21B18054A9BB29B18054A5B00985C13
:1060E00082B04007C00F02B07047C046FF3FFFFFBD
:1060F0006A06002007B501AB07280BD8002220381C
:1061000018705A708022054B0A430198197800F0E4
:10611000FDFF07BD223018704422F2E774C0000072
:1061200010B50221FFF7E6FF10BD00000121044A6F
:1061300010B54400A35C8B43A354FFF7DBFF10BDF5
:106140006A06002010B50024064B6200D35CE0B262
:10615000DB0701D5FFF7E4FF0134082CF4D1002060
:1061600010BDC0466A060020F8B50023204D5A0035
:10617000525DD20730D40133102BF8D10024220015
:106180001C4BE0B21B78002B11D06600AB5D1907E9
:1061900019D519490F78002F09D008229343AB5520
:1061A000FFF7C4FF0222AB5D93433A00AB550134C5
:1061B000102CE5D1002A04D000230E4A13700E4A99
:1061C00013700020F8BDDE07F60FF0D09B07EED469
:1061D000FFF7ACFF3200EAE7FFF748FF0028CDD019
:1061E0000122044B1A700022034B1A70C6E7C04606
:1061F0006A0600206806002069060020F8B5002520
:106200000A4E6F00BC5DE407E40F03D0FFF72EFFDA
:10621000002809D0F35D9C07E40F05D11C07E40FAB
:1062200002D10135102DECD12000F8BD6A06002006
:10623000F0B587B00E00002069461C005BB2CA743E
:10624000834220DB7378029333780393029B1F020F
:10625000039BFF18BFB27D1EEBB20193FFF7CEFF89
:106260005E4BFF18BFB2002829D10F2F0BD8032295
:106270002240012A09D1019B59495D006B5C023023
:1062800083436B54012007B0F0BD022AFAD16C465B
:10629000544BE47C1968544B1980019B50495800B9
:1062A0000B185C700124435C1343234343543100B7
:1062B0004E4804F03EFC0198FFF732FFE2E70F2F53
:1062C00070D803206946019B454F5D000440E85D9E
:1062D0000307DA0F0A75002B11DA022CD2D1220043
:1062E0003100424804F025FC0822EB5D01989343FD
:1062F000EB55FFF71BFF00223D4B1A70C2E7012C44
:1063000013D10223384A9843364B12881B68E8554C
:106310009B1A384A9BB212889A42B3D20198FFF76F
:1063200005FF6A46324B127DE7E7022CAAD12F4ABD
:10633000039913780443EC552B4C8B4223D15278AC
:1063400002998A421FD1707800021843FFF7BCFE01
:10635000002818D0284B00229A5E531C20D1274BCE
:106360001A88204B21881B685B1A9BB29A4200D284
:1063700088E708237A5D310013437B5502221B48CE
:1063800004F0D7FB7EE7174B6A461B68D27C23805C
:1063900001247B195A707B5D022223437B5586E7DB
:1063A00092B2DEE702220020144200D16BE73100F6
:1063B0000E4804F0BEFB7278337811025B189BB272
:1063C000DF2B03D8442A04D100205CE7E72BF9D85F
:1063D000FAE70122064B1A70F6E7C046FF3F0000BD
:1063E0006A06002024020020660600208A0600209B
:1063F0006806002026000020280000202A00002037
:106400000122024B1A70024B187070476806002078
:106410006906002010B50023042404495800425C9A
:10642000013322434254102BF8D110BD6A060020DC
:1064300010B50120FEF77AF9064B010018800648D6
:1064400000F04AFF054B1870FF2801D1FEF7B8FF96
:10645000002010BD8E0600200C07002090060020B2
:1064600010B5094B1A78094B1978914209D01A7066
:10647000074C084B2000198800F04EFF200000F068
:106480004FFF002010BDC0461600002090060020DF
:106490000C0700208E060020F7B5012201AB198001
:1064A000431CDD7FC61D2A4053425A410700340079
:1064B0008379C179013BDBB28371F3180132103764
:1064C0000093009B9E4206D0737833707B88013620
:1064D0003B800237F5E701236D1006308576019881
:1064E000E37700F013FE0023E377F7BDFF221202EB
:1064F0000A40C9B28918174A89B282B00023914272
:1065000010D9154A914210D8144A8918020089B24C
:106510000832D177091229301F3220395370437065
:1065200001700133180002B070470D4A9142F9D84A
:106530000C4A8918020089B20832D1771F32537091
:106540000300091229332A31197044232A300370B9
:10655000433BE7E710C0000011C80000EF3F000018
:1065600012D00000EE370000F7B5214B214FCEB21C
:1065700004001B68B85D984701AB18806B46188013
:1065800000992000FFF7B2FF051E1DD12A00B85D5B
:106590002179D3B299421DD927689300FB185F78FF
:1065A000B74215D10027DF5787420FD120000222C2
:1065B00027306946DD789E7804F0BBFA23002A3440
:1065C00029331E70257001252800FEBD0137EDD04E
:1065D0000132DEE7200002222730694604F0A9FAE2
:1065E0002200FF2329322A3413702370ECE7C046BF
:1065F000080000202C020020531A642210B55A43D0
:1066000004300C00C17F100004F0A2F8044B19689C
:1066100083B20020091B89B28B424041C0B210BD39
:1066200024020020C9B28218904205D0013083793B
:106630008B42F9D1012070470020FCE7031C0004C5
:10664000020E3F21100082B0DBB2884307D107223F
:106650002033DBB29A424041C0B202B07047002002
:10666000442AFAD12930984280414042F5E7F0B5FA
:106670000126837989B004003700002B66D0831986
:10668000DD7F0093354008D0002207AB1A705A70A6
:1066900007992000FFF700FF58E0C37900936B468D
:1066A0001978FFF761FF002846D0E31CDE7F002E3B
:1066B00042D0243358781A7800021043FFF7BEFF07
:1066C000A37902900193631C0493A31D0393231DDC
:1066D0000593019BFAB293424DD9049B0121DB7FC4
:1066E0003B410B4206D1029B002B25D1002D40D00F
:1066F0000137EEE7E319D9790098884229D1002DB6
:1067000003D0059AD27F002A0AD12100029B2731AB
:10671000002B00D00231022207A804F00AFAB7E7E2
:10672000DB1903991A8A2B1D5B00CB1859882000AE
:10673000FFF762FF0028DBD12300273359781A784E
:10674000090211432000FFF7A7FE0126300009B01F
:10675000F0BD0123D8B28242CAD903980133C05C8C
:106760008842F7D12300293359781A780902114356
:106770008FE71500BCE7019B082BDDD00026E5E77D
:1067800070B50400D0B20E004F284DD859B2002980
:106790004ADBE11DC97F002946D1E11CCD7F002DD8
:1067A00010D171783378090219432000FFF79EFE5B
:1067B000002839D0210002222731300004F0B9F935
:1067C000280070BD03210B40A1795E1E0D19012E1A
:1067D0000DD923009D4227D01A1B0133997981429C
:1067E000F8D10134E37F012513419D43E8E7EA71C5
:1067F0000E4D0A1DA01D2D685200821855800122E1
:106800008A40857ED2B2012B0BD12A438276013198
:10681000C9B2A17101250829D2D12000FFF727FFB5
:10682000CEE795438576F2E70025C9E724020020EC
:10683000F7B504000026A379B3421ED9631CDB7FA1
:1068400001223341134215D0A319DF793200391CDC
:106850002000FFF7E7FE051E0CD10122E31DDA77C9
:1068600001AB187058700322391C019800F04EFCDF
:10687000E31DDD770136F6B2DDE72000FFF7F7FE16
:1068800000281CD10F4B228A1B689B1AA28C9BB23A
:106890009A4214D22500273568782B7800021843D5
:1068A000FFF7CCFE21002931002800D02900022268
:1068B00001A804F03EF901992000FFF7EDFD00204A
:1068C000FEBDC0462402002070B500250F4C0822F2
:1068D000E61DA57130000E492560257104F029F9E7
:1068E0000122E31CDA77231D4F32DA77FA232200E4
:1068F000A38408320533D377220028321370220094
:106900002A342932F5771370237070BD9406002065
:1069100008C300000022064B064940001A705A7056
:10692000435CFC321A400423134343547047C0466F
:10693000C4060020C6060020F8B50E4D0E4E2C7879
:106940000E49133CE4B26700F3195A78097803231F
:106950002000FBF7FFFC0223BA5D1343BB55DB07A6
:10696000DA0F002B04D12A706A702000FFF7D2FFE3
:10697000F8BDC046C4060020C60600202C0000203A
:106980000A4B10B518780A4B1338C0B242009B1856
:106990005A780132D2B25A70064B1968064B1980E8
:1069A000064900230978FBF7D5FC10BDC40600207A
:1069B000C606002024020020C20600202C00002071
:1069C000F8B50024154D6600735DE0B25B070CD589
:1069D0001349AF197A7804230978FBF7BBFC00232D
:1069E00004227B70735D934373550134102CE9D1FD
:1069F0000C4B1A78002A02D15B78002B0BD00A4B83
:106A00000A4A1B6812889B1A094A9BB212889A424A
:106A100001D2FFF791FF0020F8BDC046C606002056
:106A20002C000020C406002024020020C206002002
:106A30002E000020F7B56B46134F144D3C781449D7
:106A4000133CE4B26600D871AB1909785A7820007B
:106A50000223FBF77FFC0223725D1343735500236F
:106A60003B707B706B46D879FCF700FD094F38000E
:106A7000FCF7D2F83800FCF721F9735DDB0702D48C
:106A80002000FFF747FFF7BDC4060020C606002020
:106A90002C000020FC060020F0B5161C85B05AB270
:106AA0000191002A02DA002005B0F0BD019A4248A7
:106AB0005278424F0292019A12780392029A14027B
:106AC000039AA418A4B2201880B23A780F2815D9D6
:106AD000002A02D178780028E6D003252B40022B2B
:106AE00002D1301CFFF7A6FF301CFCF7F3FC002896
:106AF000D9D0301CFCF7D4FC0120D5E70325133C8A
:106B0000E4B21D40012D06D163009C4661462C482D
:106B10001B5CAB430B54039B9A4203D17B780299D5
:106B20008B423AD0002A02D17B78002B08D0012D6D
:106B30001BD1234B62009B185B78002BDCD006E056
:106B40001F4B6200D35C9B0705D5012DD4D12000DB
:106B5000FFF7E0FED0E702220199380003F0E9FFD9
:106B6000184B1E70FFF70CFFC6E7022DC4D1301C76
:106B7000FFF760FF380001270222019903F0D9FFD7
:106B8000104B62001E700E4BD15C3943D154022D64
:106B900006D1FFF7F5FE380086E7012DEAD1ABE715
:106BA000D15C8907A8D59B185A78311C3B0020007E
:106BB000FBF7D0FBEFE7C046ED2F0000C406002036
:106BC000C60600202C00002010B5084C200000F064
:106BD0001EFE414241412000C9B2217400F01AFE5C
:106BE000FA20800001F0BCFB10BDC04650270020F9
:106BF000012330B51D0002881A408B4209D2048857
:106C00005200641004802C402243013392B2DBB264
:106C1000F3E7028030BD0000F7B58B180F4F0193EA
:106C2000019B994219D0082501240B789C460388C2
:106C300066461AB234420ED15B00D20F9BB2002AD4
:106C400001D07B409BB26400013DE4B2002DEFD146
:106C500003800131E4E7D243EEE7F7BD0580FFFF93
:106C60000022014B1A807047E8060020F7B5D4B225
:106C700001AE00290AD134707470B4707278307823
:106C8000B37812021B0410431843FEBD062343438E
:106C9000181205025B1BFF279BB21D00FB1A4D4318
:106CA0004B432D121B12791A7D1BFB1A554353437C
:106CB0004A432D1212121B12D2B2E9B2042806D88E
:106CC00003F03CFD03090D1216001100DAB2347016
:106CD0007270B170D2E711002200ECB2F7E7D9B2BE
:106CE000230014001A00F2E721001400EAB2EEE7D4
:106CF0002100DCB2EBE70000164B12011B6813B554
:106D00009BB29A181211D3B2120601D5DB43DBB243
:106D10005B00DBB21A0003245A431212534354435C
:106D20001B125B00E31ADA0FD21852105032D2B2A3
:106D300089B280B2FFF79AFFFF210300020A0A40DE
:106D40000B4012021343000C034A08401340000496
:106D5000184316BD24020020FFFF00FF13B56C4648
:106D60005B08C018094B520889181A7E80B222703D
:106D7000002289B29882D9821B696080A180A271A9
:106D800069461B6808320248984713BD2028002036
:106D9000302800200023064A1380064A1380064B41
:106DA000064A1380064A13800122064B1A70704768
:106DB000F2060020F0060020FF7F0000EC06002015
:106DC000EE060020EA0600200022014B1A707047F0
:106DD000EA060020034B10B51B78002B01D0FFF70B
:106DE000D9FF10BDEA060020F7B5274C060023782E
:106DF000002B01D1FFF7CEFFF30702D5002323704C
:106E0000F7BD224B224F1C783888210003F02AFD61
:106E100085B23D801F4F2100388803F023FD1E49B5
:106E200082B20B883A80019306231C4F3340388886
:106E3000062B0BD1019B1018EB189CB20C802B0079
:106E400081B220003980FFF789FFD9E7730710D599
:106E5000631E53439C4660443880F3060DD5013CC5
:106E60006C43019B1B190B803C8808882B00210078
:106E7000E9E7B307F1D41018EEE73307F4D4019B28
:106E80000548EB180380EFE7EA06002031000020F8
:106E9000EC060020EE060020F2060020F00600209E
:106EA00082B240B2002804DB5243D0110130C0B29C
:106EB000704780204000801A404380B2C011C04318
:106EC000F5E70000F0B500273D4B0600187885B0C7
:106ED0000D0004B2BE4231D0B9421FD063377843AF
:106EE0008C2103F0BFFC002800D004B238008C21B4
:106EF000704303F0B7FC002859D133B263200393E9
:106F00000C266B4668438C219E5703F0ABFC00288F
:106F10004FD12DB2039F6DB2002F0FD0294B18789F
:106F2000FFF7BEFF284B46431B785BB29E1937B272
:106F3000A74240DC63429F4200DA1FB20026B542FE
:106F40000FD0204B00261878FFF7AAFF1F4B4543B0
:106F50009E57761936B2A6422FDC6442A64200DA6A
:106F600026B200241A4B30001C701A4B1D782900E1
:106F700003F078FC290043B23800039303F072FC5D
:106F8000039A41B200942300134800F0E3FD114B33
:106F900038001C78210003F04BFD0B4B30001970BA
:106FA000210003F045FD094B197005B0F0BD03B297
:106FB000A4E705B2AEE72700C0E72600D1E7C04648
:106FC00030000020F4060020F5060020F606002020
:106FD000EA06002032000020E827002037B50C4BDD
:106FE00005001A780B4C824201D120683EBD6946EB
:106FF0001870FBF749FA019B002B02D1009B23601C
:10700000F3E72A000099044898472060EDE7C0465E
:1070100033000020F8060020C00100200022024BAF
:107020001A715A719A717047FC06002070B5084DAC
:107030000400280000F0EBFB2100002803D1280009
:1070400000F035FC70BD034800F059FDFAE7C0467A
:10705000502700209C27002070B5084D0400280010
:1070600000F0D5FB2100002803D1280000F002FC2D
:1070700070BD034800F028FDFAE7C0465027002005
:107080009C27002037B50C0401AB1980CDB2240E2B
:10709000002A10D08379002B00D1037103792200DC
:1070A000234303713F239A4304D12B002033DBB2E7
:1070B000072B04D985713F2322009A4321D12B004D
:1070C0002033DBB2072B1CD8230702D5E120FFF7C2
:1070D000C3FFE30702D5E020FFF7BEFFA30702D5F9
:1070E000E220FFF7B9FF630702D5E620FFF7B4FF00
:1070F000E30602D5E320FFF7AFFF2800FFF7ACFF60
:1071000037BD43791C434471F7E70000F0B585B003
:1071100001ACCEB220800F1C15004F2E25D80323C2
:1071200013400093022B08D12278002A47D16378BC
:10713000002B44D1381CFBF70BFE381CFCF7CAF9B6
:10714000002805D0009B012B37D1381CFCF7A8F98B
:107150002378002B09D16378002B06D1464B7600AB
:10716000F61873783278637022702A00391C200078
:10717000FBF7B8FA002820D12A00391C0198FBF748
:1071800003FFC6B22080002E02D16378002B14D0FA
:1071900040222388647803A90B80224029D063B25F
:1071A000002B0ADB230713D5AB0706D5210289196B
:1071B0008905890D314800F0D9FB05B0F0BD6B069B
:1071C000B8D42D48617873001B181A705970B4E751
:1071D000E307F2D503231D40022D04D131002848D6
:1071E00000F050FDE9E7012DE7D1254800F046FD0C
:1071F000E3E703232B40022B05D101220968214834
:10720000FFF740FFD9E7A807F8D4012BD5D16DB21D
:10721000002DD2DA1B4B21001A7962401A713F22ED
:10722000914304D132002032D2B2072A07D99A7989
:10723000B24201D100229A715A7962405A712307F1
:1072400002D5E120FFF7F2FEE30702D5E020FFF7C9
:10725000EDFEA30702D5E220FFF7E8FE630702D5A3
:10726000E620FFF7E3FEE30602D5E320FFF7DEFEAC
:107270003000FFF7DBFEA0E77D0200207C27002026
:107280000C280020FC06002070B50F4C0F4EA544C2
:1072900004000F4801AA43690169651C00F0FEF86B
:1072A000320001A9280003F044FCA35D002B05D1A6
:1072B0008022FF219201280003F044FC0123237067
:1072C000044B9D4470BDC046F8DFFFFF0120000065
:1072D000102700200820000070B5037804000D007E
:1072E000002B01D1FFF7D0FF6419607870BD00005A
:1072F000037870B505000C001600002B01D1FFF7D4
:10730000C3FF2C196378B34203D00122014BEA5426
:10731000667070BD0220000010B5FFF7E9FF10BDD8
:1073200010B5114C0378A5440400002B01D1FFF7E0
:10733000ABFF0E4BE35C002B12D001230C4AE1188B
:10734000A35401A803F0F5FB0A4C626921692000EF
:1073500000F092F8636901AA2169200000F03CF86E
:10736000054B9D4410BDC046F8DFFFFF0220000022
:1073700001200000102700200820000010B5054A59
:107380000549064800F010F80022054B05491A701F
:107390005A5410BD0120000000C400001027002036
:1073A0000C0700200220000030B5094D094CAB68E5
:1073B0005B035B0F9B001C590460AB6801619BB2CF
:1073C00043606343A4008360C460426130BDC04633
:1073D0000040004100E50000F7B580261A4D0191FC
:1073E0006F6803333E439B086E60002B2BD0174E13
:1073F0002E802E7DF107FCD51E000768991BBF0863
:107400008F4219D9002E17D0FF2117788C433C43A7
:107410000F4957780C403F023C439778013E3904AE
:107420000C4F2740D478BFB20F43240601993C4348
:1074300010C101910432E0E7074B2B802B7DDB0765
:10744000FCD53300D1E7F7BD0040004144A5FFFF64
:10745000FF00FFFFFFFF00FF04A5FFFF044B054AED
:107460004908D9611A801A7DD207FCD57047C046F9
:107470000040004102A5FFFF70B504000D0016009A
:10748000E36829002000B34205D2FFF7E7FFE36875
:10749000ED18F61AF4E7FFF7E1FF70BD10B5100024
:1074A0001A0003F046FB10BD30B50B7889B00133EC
:1074B0000B706B4605000D220021981D03F042FB66
:1074C000134B01AC2380134B134AA380092363722F
:1074D0001833A372203BE372237323762B79E28166
:1074E0000E4AA3702B8B6282032223741B126374D7
:1074F000802362753D32E2826A795B421343210048
:1075000019220020237500F091FC09B030BDC0465F
:10751000090400000103000001220000070500002B
:10752000F8B50B7807000024812B1ED1CB78222BD5
:107530001BD18A8803799A4217D12600012000F0D6
:107540007DFC7D69002D0AD02A7A6968002000F050
:107550006DFC0400431C08D036182D68F2E70123A7
:107560002800BB7600F06AFC34002000F8BD000063
:1075700070B502798B88040000259A4209D10A78F7
:107580004B78A12A07D19F3A9343013B5D425D416D
:10759000EDB2280070BD212AFBD10B2B03D18B78D3
:1075A00083760125F5E70A2B02D18B78C376F8E7BD
:1075B000092BEED1CA88022A05D1010006481C31E8
:1075C00002F0AAFAE5E7012AE3D1010002481D31E1
:1075D00002F0A2FA2577DCE7402F00204369002B58
:1075E00006D14161038B0A899B18038370471300FE
:1075F0001A68002AFBD11960F4E7000030B591B099
:107600001C0005006B460800110018702200581C71
:1076100003F08FFA631C69796A46024802F030FB76
:1076200011B030BD402F0020F7B51F0001911600AA
:10763000FFF7E4FF054B04001D68002D04D0030094
:107640003A0031000198A8472000FEBD4C270020D9
:107650000223FF3310B5C380030010338360094B4E
:10766000832208330360002304000261064AC360DA
:1076700043618261838301F013FE210001F0E4FD88
:10768000200010BD20E500000000010170B50126BA
:10769000054D064C2B68334203D12000FFF7D8FF7D
:1076A0002E60200070BDC046282700202C27002017
:1076B0000379413301200B707047000030B50B781F
:1076C00089B001330B706B46050011220021981D13
:1076D00003F038FA124B01AC2380124A124BE281BC
:1076E00002933F22092322746372104A1833A37253
:1076F000203BE37223736282237603222B79627527
:10770000A37080233D32E2826A795B4213432100F9
:1077100019220020237500F089FB09B030BDC04656
:107720000904000001220000010301010705000017
:107730000A78030010B50020812A0ED1CA78222AC7
:107740000BD189881A79914207D11A001B7C283203
:10775000137002493F2200F069FB10BD38E50000BC
:1077600070B504798A8803000020944209D10C780E
:107770004A78A12C06D10223013AD2B29342404169
:10778000C0B270BD212CFCD10B2A04D18A782833D9
:107790001A700120F5E70A2A02D129331870F8E798
:1077A000092AEED1CD78CC88022D08D1012CE8D160
:1077B0002A3319002200084802F0AEF9E9E7012D4A
:1077C000DFD1082CDDD1113319002200024802F06C
:1077D000A3F92800D5E7C046402F0020030024333A
:1077E0008360084B02210833036001230374823352
:1077F000436203000022FF312A33C180C260018549
:107800001A70704778E500002A30007870472830F9
:10781000007870472830017070470000F8B5060006
:10782000040019361134050008222100300003F04D
:1078300071F9002816D06979082322000B4802F05C
:107840001FFA0B4B05001F68002F04D0030008220D
:1078500021000220B84708222100300003F069F916
:107860002800F8BD01256D42FAE7C046402F0020F0
:107870004C2700200A002032D2B210B50023072A7C
:1078800008D801331A00E0398A40417C0A43427427
:1078900001200BE0C218D47C8C42F9D0002C01D11D
:1078A000D174F5E70133062BF4D1002010BD0B0095
:1078B0002033DBB270B5072B07D80122E0398A40AC
:1078C000437C93434374012070BD020004001332D3
:1078D0001300002519341E788E4200D11D7001332B
:1078E000A342F8D100211578002D05D04418E67C7C
:1078F0000131E574C9B2167001329A42F3D1E2E760
:1079000010B511300822002103F01CF910BD203100
:10791000C9B203000020072903D8587C012308417D
:107920001840704710B50248FFF758FF10BDC04619
:107930005027002001210A4A70B5136805000B404A
:10794000084C05D12360084B116063601923238123
:10795000FFF79CFE2100FFF741FE280070BDC046E6
:107960008C2700209027002090E50000002310B510
:107970005A00845A002C01D1115210BD0133042B3E
:10798000F6D1FAE710B50822002103F0DBF810BDAC
:1079900010B50400FFF77AFE082322000421FFF748
:1079A00043FE10BD70B50500083504000100082233
:1079B000280003F0AFF8002807D02000FFF7E8FF09
:1079C00008222100280003F0B4F870BD10B5024869
:1079D000FFF7B0FF10BDC0467C27002001210A4AF6
:1079E00070B5136805000B40084C05D12360084BA7
:1079F0001160636041232381FFF748FE2100FFF7F8
:107A0000EDFD280070BDC046D8270020DC270020EF
:107A1000A9E5000010B50400FFF738FE1D23220081
:107A20000821FFF701FE10BDF8B507001D3704005F
:107A300001001D22380003F06DF8002836D02578AB
:107A4000667F2B00B3431CD02000611C1C221E301B
:107A500003F060F8002814D06577FFF717FE1D23A8
:107A60003A000821FFF7E0FD66772000FFF7D2FF1C
:107A7000051E04DD1D222100380003F05AF82800FD
:107A8000F8BD3300AB43F0D02000611C1C221E3037
:107A900003F040F80028E8D02670FFF7F7FD1D231B
:107AA00022000821FFF7C0FD2570DEE701256D42A9
:107AB000E5E72031C9B203000020072903D8187870
:107AC00001230841184070470200DD290AD8CB087D
:107AD000C31807220120114002008A4059780A4346
